:020000040000fa
:04005c00020300009b
:020000040000fa
:0400100002030000e7
:020000040000fa
:04025c000203000099
:020000040000fa
:0402100002030000e5
:020000040000fa
:0402b4000203000041
:020000040000fa
:0402b0000203000045
:020000040000fa
:0403400002030000b4
:020000040000fa
:040270000203000085
:020000040000fa
:040274000203000081
:020000040000fa
:0403340002030000c0
:020000040000fa
:0402380002030000bd
:020000040000fa
:040260000203000095
:020000040000fa
:04028800020300006d
:020000040000fa
:0402b800020300003d
:020000040000fa
:0402e0000203000015
:020000040000fa
:04031c0002030000d8
:020000040000fa
:0403380002030000bc
:020000040000fa
:04033c0002030000b8
:020000040000fa
:04021c0002030000d9
:020000040000fa
:04022c0002030000c9
:020000040000fa
:04023c0002030000b9
:020000040000fa
:040280000203000075
:020000040000fa
:040284000203000071
:020000040000fa
:0402280002030000cd
:020000040000fa
:04027800020300007d
:020000040000fa
:04029c000203000059
:020000040000fa
:040264000203000091
:020000040000fa
:04027c000203000079
:020000040000fa
:0402bc000203000039
:020000040000fa
:0402c0000203000035
:020000040000fa
:0402c4000203000031
:020000040000fa
:0402c800020300002d
:020000040000fa
:0402cc000203000029
:020000040000fa
:0402d0000203000025
:020000040000fa
:0402d4000203000021
:020000040000fa
:0402d800020300001d
:020000040000fa
:0402e4000203000011
:020000040000fa
:0402e800020300000d
:020000040000fa
:0402ec000203000009
:020000040000fa
:0402f0000203000005
:020000040000fa
:0402f4000203000001
:020000040000fa
:0402f80002030000fd
:020000040000fa
:0402fc0002030000f9
:020000040000fa
:0403000002030000f4
:020000040000fa
:0403040002030000f0
:020000040000fa
:0403080002030000ec
:020000040000fa
:04030c0002030000e8
:020000040000fa
:0403100002030000e4
:020000040000fa
:0403140002030000e0
:020000040000fa
:0403180002030000dc
:020000040000fa
:0403240002030000d0
:020000040000fa
:0403280002030000cc
:020000040000fa
:0403440002030000b0
:020000040000fa
:0403480002030000ac
:020000040000fa
:04034c0002030000a8
:020000040000fa
:0403500002030000a4
:020000040000fa
:0403540002030000a0
:020000040000fa
:04035800020300009c
:020000040000fa
:04035c000203000098
:020000040000fa
:040360000203000094
:020000040000fa
:040364000203000090
:020000040000fa
:04026c000203000089
:020000040000fa
:0402180002030000dd
:020000040000fa
:0402300002030000c5
:020000040000fa
:0402400002030000b5
:020000040000fa
:04028c000203000069
:020000040000fa
:040290000203000065
:020000040000fa
:04020c0002030000e9
:020000040000fa
:0402dc000203000019
:020000040000fa
:0403200002030000d4
:020000040000fa
:0402080002030000ed
:020000040000fa
:0402200002030000d5
:020000040000fa
:0402240002030000d1
:020000040000fa
:04026800020300008d
:020000040000fa
:04024c0002030000a9
:020000040000fa
:0402500002030000a5
:020000040000fa
:0402a800020300004d
:020000040000fa
:0402ac000203000049
:020000040000fa
:0402140002030000e1
:020000040000fa
:04023400d0020000f4
:020000040000fa
:0402440002030000b1
:020000040000fa
:0402480002030000ad
:020000040000fa
:040294000203000061
:020000040000fa
:04029800020300005d
:020000040000fa
:04032c0002030000c8
:020000040000fa
:0402540002030000a1
:020000040000fa
:04025800020300009d
:020000040000fa
:0403300002030000c4
:020000040000fa
:0402a0000203000055
:020000040000fa
:0402a4000203000051
:020000040000fa
:0400b4000203000043
:020000040000fa
:0400b0000203000047
:020000040000fa
:0401400002030000b6
:020000040000fa
:040070000203000087
:020000040000fa
:040074000203000083
:020000040000fa
:0401340002030000c2
:020000040000fa
:0400380002030000bf
:020000040000fa
:040060000203000097
:020000040000fa
:04008800020300006f
:020000040000fa
:0400b800020300003f
:020000040000fa
:0400e0000203000017
:020000040000fa
:04011c0002030000da
:020000040000fa
:0401380002030000be
:020000040000fa
:04013c0002030000ba
:020000040000fa
:04001c0002030000db
:020000040000fa
:04002c0002030000cb
:020000040000fa
:04003c0002030000bb
:020000040000fa
:040080000203000077
:020000040000fa
:040084000203000073
:020000040000fa
:0400280002030000cf
:020000040000fa
:04007800020300007f
:020000040000fa
:04009c00020300005b
:020000040000fa
:040064000203000093
:020000040000fa
:04007c00020300007b
:020000040000fa
:0400bc00020300003b
:020000040000fa
:0400c0000203000037
:020000040000fa
:0400c4000203000033
:020000040000fa
:0400c800020300002f
:020000040000fa
:0400cc00020300002b
:020000040000fa
:0400d0000203000027
:020000040000fa
:0400d4000203000023
:020000040000fa
:0400d800020300001f
:020000040000fa
:0400e4000203000013
:020000040000fa
:0400e800020300000f
:020000040000fa
:0400ec00020300000b
:020000040000fa
:0400f0000203000007
:020000040000fa
:0400f4000203000003
:020000040000fa
:0400f80002030000ff
:020000040000fa
:0400fc0002030000fb
:020000040000fa
:0401000002030000f6
:020000040000fa
:0401040002030000f2
:020000040000fa
:0401080002030000ee
:020000040000fa
:04010c0002030000ea
:020000040000fa
:0401100002030000e6
:020000040000fa
:0401140002030000e2
:020000040000fa
:0401180002030000de
:020000040000fa
:0401240002030000d2
:020000040000fa
:0401280002030000ce
:020000040000fa
:0401440002030000b2
:020000040000fa
:0401480002030000ae
:020000040000fa
:04014c0002030000aa
:020000040000fa
:0401500002030000a6
:020000040000fa
:0401540002030000a2
:020000040000fa
:04015800020300009e
:020000040000fa
:04015c00020300009a
:020000040000fa
:040160000203000096
:020000040000fa
:040164000203000092
:020000040000fa
:04006c00020300008b
:020000040000fa
:0400180002030000df
:020000040000fa
:0400300002030000c7
:020000040000fa
:0400400002030000b7
:020000040000fa
:04008c00020300006b
:020000040000fa
:040090000203000067
:020000040000fa
:04000c0002030000eb
:020000040000fa
:0400dc00020300001b
:020000040000fa
:0401200002030000d6
:020000040000fa
:0400080002030000ef
:020000040000fa
:0400200002030000d7
:020000040000fa
:0400240002030000d3
:020000040000fa
:04006800020300008f
:020000040000fa
:04004c0002030000ab
:020000040000fa
:0400500002030000a7
:020000040000fa
:0400a800020300004f
:020000040000fa
:0400ac00020300004b
:020000040000fa
:0400140002030000e3
:020000040000fa
:0400440002030000b3
:020000040000fa
:0400480002030000af
:020000040000fa
:040094000203000063
:020000040000fa
:04009800020300005f
:020000040000fa
:04012c0002030000ca
:020000040000fa
:0400540002030000a3
:020000040000fa
:04005800020300009f
:020000040000fa
:0401300002030000c6
:020000040000fa
:0400a0000203000057
:020000040000fa
:0400a4000203000053
:020000040000fa
:080000000002040000000000f2
:020000040000fa
:100400002f9621000e7f22000e01880000000000c0
:10041000000020000000e000020032000001200087
:100420002002880014000700780007000000e000a8
:1004300003003a00009f2100010020000200370065
:100440000000200001002000810f70000100320038
:1004500014000700000020000000e000020032004d
:100460000000020000000000d0190200000000009f
:100470000040da000000fe004440a90040032000d4
:100480000000e0000300320000002000a00188000e
:100490004440a800000006008a1f78008b1f7800e7
:1004a0000000060091018800800478000000eb0045
:1004b0001a003700e284440032a0b4009905ba0063
:1004c000e284440032a0b4009906ba00e2844400f9
:1004d00032a0b4000006eb00476fde00fd07b2005b
:1004e000636ce10003003a00ebff07000000eb0043
:1004f0000a003700606ce10004003a00005deb0088
:100500008b05e900fdff3e00040037006168e10053
:10051000010032000086eb000b00070019c7ba008b
:100520001905ba000e04e00003003a000a00e000da
:10053000e0ff3a0000000600fe07b2009e018800be
:100540008a047800f5ff3700395dba008b05e900b1
:100550000c003200295dba008b05e900080032006a
:100560000c00e00003003a00e284440032a0b40032
:10057000f5ff370019ddba008b05e900faff3a00f4
:100580008904e800e184440032a0b40000000600c1
:100590000c1a040000000000d41004000000000049
:1005a0003600f800809fbe00829fbe00849fbe0080
:1005b000869fbe003400f80000002000a0018800e3
:1005c0000000fa008460a900760a02000000000022
:1005d0000000e00003003200521902000000000099
:1005e000000000000080fa003400f9004f03be0054
:1005f0004f02be004f01be004f00be003600f900a2
:10060000004006000040da000000fe000000050087
:10061000889fbe008a9fbe00800478000200e00030
:100620005b00320001407800814c780082814400f8
:10063000f1f99f00e20f51005500360091449800f7
:10064000a1449800e1f99f00d1f99f00e60f510005
:100650004f003600b1449800c1f99f00e80f5100e7
:100660004b0036000905ea00630565000a84440072
:100670000a055100c1ff2f00010565000080fb0045
:100680008000eb001210200013102000440007002f
:10069000008cbe000a01440060b99f0071b99f0040
:1006a000e80f55003a003600200498003104980005
:1006b000400498005104980020b99f0031b99f0070
:1006c00040b99f0051b99f00f80f55003000360027
:1006d0006004980071049800000c9800110c9800b8
:1006e000200c9800310c9800400c9800510c980098
:1006f00020b19f0031b19f0040b19f0051b19f00d8
:1007000060b19f0071b19f0000b99f0011b99f00b7
:1007100064016400780141000204440002055500b0
:100720006011b8000203be000002be000403be0058
:100730006022b80000007200818072000201730024
:100740008381730010003700009cbe000294be003d
:1007500040049800510498006204980073049800c3
:10076000000c9800110c9800220c9800330c980093
:10077000400c9800510c9800620c9800730c980083
:100780000a02b1000802b000ff0f5500eeff3e0064
:10079000090078004f05be004f04be0000000600af
:1007a000020ab900001bb9000200b8008100420033
:0807b000810043000000060077
:020000040000fa
:04003400d0020000f6
:020000040000fa
:1007b80011110000222200003333000044440000dd
:1007c80055550000666600007777000088880000ad
:1007d80099990000aaaa0000bbbb0000cccc00007d
:1007e800dddd0000eeee0000cecd0000acab000079
:1007f80043540000524c00005f4c00004544000088
:100808004300000008000000494400004c45000077
:080818000000000004000000d4
:020000040000fa
:100820000e00fa0010079800210798003207980080
:10083000430798005407980065079800600220005d
:10084000f011020000000000000f78001e00780088
:100850000000e00015003200620220008000eb0082
:100860001e00780008030200000000003e00900017
:1008700000004000f011020000000000800078003d
:100880001e007800410898001e0078004008900083
:100890000000e00005003a001e007800d8130200b6
:1008a000000000000000eb00000f78001e00780040
:1008b0000000e000090032008003eb001e03780016
:1008c000ee0290005e029000ce0190003e0190008a
:1008d000ae0090001e0090001f0007001e00780070
:1008e0000080fa00000006001000fa0020079800bf
:1008f0003107980042079800530798006407980052
:1009000075079800fe0290006e029000de019000d4
:100910004e019000be0090002e009000c0ff070026
:10092000100798001e0090000000e0000500320053
:100930001e0090007d00070010002000000f7800ce
:10094000020037000080eb00000f78001e007800e6
:100950000080fa00000006001400fa00200798004a
:1009600031079800420798005307980064079800e1
:1009700075079800060f9800170f98000e08900052
:10098000c0089000110798001e0090000000e800c9
:100990000000a100100798001e0090006100600098
:1009a000004078000004e0000800320011028000de
:1009b000f0f12f00008060000050a00010028800bd
:1009c0000000000000000000ffff37000e0890004c
:1009d000c00890004e0090000000e90000004000b8
:1009e000808040000e089000211098003e0090008a
:1009f0000000e000180032000000eb00000f78005b
:100a00000d0037003e0090001e004000904078002e
:100a10000e0890001e0040007a0040000148780057
:100a20003e0090001e004000104078000004e000ee
:100a3000050032001e0fe8001e007800e90f50008c
:100a4000f0ff360001003700000000000e089000a3
:100a50008040eb00316098006e009000e80f50007d
:100a60000800360011028000f0f12f0000806000c5
:100a70000050a000100288000000000000000000ec
:100a8000ffff37006e009000e80f500002003600b4
:100a900080002000600798000e089000ee00900093
:100aa000310898000e0890000080e8005e180200ef
:100ab000000000000e0890006c0040005e1802006c
:100ac000000000000e0890008e0890004100980081
:100ad0006e009000e90010000e0890006100980080
:100ae0000e0890008e089000110898005e0190009a
:100af000ae0090001e009000d4160200000000001e
:100b0000800078000e089000010878007e009000b8
:100b10000000e000030032007e0090008e0890008c
:100b2000010878000080fa00000006000400fa00c6
:100b300010079800da17020000000000e0c58000ee
:100b40000000e800e0c5880070c080000000e00000
:100b500007003a009e00900071c08800e0c5800048
:100b6000e10f50000d003a00930507000b0037001d
:100b700010c680000000e00008003a0070c080004d
:100b8000b00890001e00900030089000808f500048
:100b900002003e009e00900071c0880050c6800098
:100ba0000000e80050c688001e009000b0089000c9
:100bb00000c68000808f5000030036001e009000a9
:100bc0003008900000c688001e0090003008900099
:100bd0006e00b90080007800008121000080400094
:100be00090009000010f78001e0090009e00780099
:100bf000210098001e007800a00090001e009000c8
:100c0000310098001e007800200090009e009000a7
:100c10008180e800110098001e0090008080e800ac
:100c20001e007800210098001e00900030089000ff
:100c30006e00b900800078000081210080804000b3
:100c40001e009000510098001e0090003008900097
:100c50006e00b90080007800008121000081400012
:100c60001e009000300890006e00b90080007800ef
:100c70000081210000804000100078000000e800a2
:100c800000097800f41702000000000010c6800080
:100c90000000e0000900320070c08000b008900041
:100ca0001e00900030089000808f5000030031003b
:100cb0005219020000000000000000000080fa004d
:100cc000000006000c00fa00400798005107980049
:100cd0000000eb00000f78004e0090000000e000e4
:100ce00008003a0011028000f0f12f00008060003f
:100cf0000050a0001002880000000000000000006a
:100d0000ffff37005e0090000000e00008003a009e
:100d100011028000f0f12f00008060000050a00060
:100d2000100288000000000000000000ffff3700f4
:100d3000d5000700f1c580001107980080c680002b
:100d4000e10f50000800320011028000f0f12f0086
:100d5000008060000050a000100288000000000029
:100d600000000000ffff37004e0090009000780068
:100d70005e00900000804000200798004e00900028
:100d8000900078001e009000808f50000c0036000c
:100d90004e009000900078002e009000808f500050
:100da00012003600ae0090001e009000808f5000b0
:100db0000e00360010002000000f78000b003700f6
:100dc0004e009000900078002e009000808f500020
:100dd00004003e00ae0090001e009000808f500086
:100de0000200360010002000000f78004e00900036
:100df000ae009000010878001e0078000000e000be
:100e000005003200ae0090001e00900000805000ef
:100e10008000eb0023050700a100070030079800c1
:100e20003e0090000000e00003003a00521902006a
:100e300000000000000000001e0078000080fa00a2
:100e4000000006000400fa00100798000000eb0004
:100e5000000f78001e0090000000e000110032003a
:100e60008900070080c68000e10f500008003200b2
:100e700011028000f0f12f00008060000050a000ff
:100e8000100288000000000000000000ffff370093
:100e90008000eb001e0090000205070080000700a4
:100ea000000f78001e0078000000e00003003a0008
:100eb0005219020000000000000000000080fa004b
:100ec000000006001200fa0010002000000f780059
:100ed0000000eb00300798000000eb0020079800ae
:100ee00011003700814028002e0090000080400053
:100ef00090407800680147002e00900000004100fb
:100f000001487800e80047002e0090000080400073
:100f1000104078000004e000070032002e0090002e
:100f20000000e800200798002e009000e90f500014
:100f3000ecff340001003700000000000000eb006f
:100f40001007980016003700400d21003007980068
:100f50001e0090000000400080007800e08c21001e
:100f60008080400068004700810278000002eb00aa
:100f70008001eb0002082000800078003e00900015
:100f800059fe0700000f78001e0078000000e00006
:100f9000070032001e0090000000e80010079800d3
:100fa0001e0090000000e000e7ff34000100370061
:100fb000000000001e0078000080fa00000006001b
:100fc0000200fa00bfff0700000f78001e00780043
:100fd000e10f500010003a0011028000f0f12f00e4
:100fe000008060000050a000100288000000000097
:100ff000000000000080eb0060c6880010002000a8
:1010000010c688000000eb00f0c5880064170200dd
:10101000000000000b0037001e007800e10f4000c8
:1010200008003a0011028000f0f12f0000806000fb
:101030000050a00010028800000000000000000026
:10104000ffff3700302084000080fa000000060017
:101050000000fa0011028000f0f12f000080600013
:101060000050a000100288000000000000000000f6
:101070000000eb0010c6880094170200000000007a
:101080000080fa00000006000000fa0080c6800020
:101090000000e80080c688000080fa00000006001a
:1010a0000e00fa000000eb00000f78000000eb00db
:1010b00010079800da170200000000000000eb00a3
:1010c0003007980080c680000000e00008003a0069
:1010d00011028000f0f12f00008060000050a0009d
:1010e000100288000000000000000000ffff370031
:1010f00080c680000000e90080c6880080c68000ad
:101100000000e000af003a00e0c580000000e00011
:10111000ac00320081003700a0c580003000900094
:10112000000f78001e007800a0089000410798008a
:101130001e007800700090009e00780081089000ea
:10114000210098001e007800000890009e007800a2
:10115000f1009000110098004e0090009000900067
:101160001e0178006c004100808f500004003a009e
:101170001e007800800890004e009000110098003a
:101180001e0078008000eb00210898004e009000bf
:10119000100078008000e9004e00900001087800ff
:1011a0001e007800d0009000510798001e007800c3
:1011b000200090009e007800b1009000210098006f
:1011c0001e007800300090009e007800a100900082
:1011d000110098005e009000900090001e80e800d2
:1011e000808f500004003a001e007800b00090008c
:1011f0005e009000110098001e0078008000eb0057
:10120000510098005e009000100078008000e90016
:101210005e009000010878001e007800b008900081
:1012200000c68000808f5000030036001e0078004a
:101230003008900000c688001e007800300890003a
:101240006e00b9008000780000812100008040001d
:1012500010019000620798001e007800ee009000d8
:10126000210098006e009000a00090001e00780001
:10127000310098006e009000200090009e80e800f1
:10128000110098009e80e8006e00900021009800f8
:101290001e007800300890006e00b90080007800d1
:1012a00000812100808040001e00780051009800dd
:1012b0001e007800300890006e00b90080007800b1
:1012c00000812100008140001e007800300890005d
:1012d0006e00b9008000780000812100008040008d
:1012e000100078000000e800000978001e00780077
:1012f000b008900070c0800030089000808f5000cf
:10130000060036003e00900080004000608c210006
:1013100000804000110020000108780070c58000a6
:101320000000e0007cff3a001e0078000000e000b2
:1013300001003200c103070022c680002207980086
:101340002e0090000000e00011003200670007004e
:101350000000e000060032003e00900080004000e7
:10136000608c2100008040001100200001087800fe
:101370002e0090000000e900200798002e00900049
:101380000000e000f1ff3a000000eb0020c68800fa
:101390003e00900080004000608c210000804000f2
:1013a000100078000000e00006003200100020006d
:1013b0001007980070c08000521902000000000061
:1013c00000000000f4170200000000001e00900062
:1013d0000080fa00000006000200fa00f1c580005b
:1013e000010f78001e0078000080fa00000006005f
:1013f0000400fa000000eb00000f7800f1c5800047
:10140000110798001e0090000080fa0000000600fe
:101410000000fa00e0c580000080fa00000006002d
:101420000400fa00100798001e0090000000e00081
:1014300002003a0070c08000010037001e009000da
:10144000000f78001e0078000000e00008003a005d
:1014500011028000f0f12f00008060000050a00019
:10146000100288000000000000000000ffff3700ad
:101470009e0078007a8040000080fa00000006009c
:101480000400fa001007980080c680000000e00009
:101490000800320011028000f0f12f00008060008f
:1014a0000050a000100288000000000000000000b2
:1014b000ffff3700f4fe0700da170200000000000b
:1014c00021c680001e0090000080400020c68800d9
:1014d000f417020000000000f1fe0700000f780082
:1014e0001e0078000080fa00000006001000fa00dc
:1014f0000000eb00000f780080c680000000e000d4
:10150000cc003a00f0c580000000e8001007980009
:101510009e009000f1c588001e0090000000e000d1
:1015200016003a0050c58000100078000000e0006e
:101530000800320011028000f0f12f0000806000ee
:101540000050a00010028800000000000000000011
:10155000ffff370051c580002107980060c580005b
:1015600050c58800ae00900061c5880040c680006c
:101570000000e80040c688003003070060c6800015
:101580009e009000808f50009900390001003700c4
:101590000000000050c58000100078000000e0004e
:1015a00003003a000080eb0060c68800900037001e
:1015b00050c5800030009000300090003007980047
:1015c0003e00900090009000410798009e0090001f
:1015d0004e009000808f500003003100ce0090003c
:1015e00061c68800820037003e009000d000900065
:1015f000510798003e00900020009000be0090002f
:10160000b1009000210098003e0090003000900052
:10161000be009000a1009000110098005e009000b4
:10162000900090003e0090000080e800808f500005
:1016300004003a003e009000b00090005e00900070
:10164000110098003e0090008000eb0051009800cf
:101650005e009000100078008000e9005e009000bd
:10166000010878003e009000200890000000e00093
:101670001f0032003e009000a00890006107980013
:101680003e00900070009000be0090008108900025
:10169000210098003e00900000089000be009000dd
:1016a000f1009000110098006e00900090009000f2
:1016b0003e0090006c004000808f500004003a0013
:1016c0003e009000800890006e009000110098008d
:1016d0003e0090008000eb00210898006e00900012
:1016e000100078008000e9006e009000010878008a
:1016f0003e009000b008900000c68000808f50002f
:10170000030036003e0090003008900000c68800bc
:101710003e009000300890006e00b9008000780014
:101720000081210000804000900090007107980027
:101730003e009000fe009000210098007e00900086
:10174000a00090003e009000310098007e009000c4
:1017500020009000be0090008180e80011009800f9
:101760003e0090008080e8007e00900021009800fc
:101770003e009000300890006e00b90080007800b4
:1017800000812100808040003e00900051009800c0
:101790003e009000300890006e00b9008000780094
:1017a00000812100008140003e0090003008900040
:1017b0006e00b900800078000081210000804000a8
:1017c000100078000000e800000978003e0090005a
:1017d000b008900070c0800030089000808f5000ea
:1017e0006bff360010002000000f780069ff370003
:1017f00070c08000300890006e00b9008000780052
:10180000008121000080400010007800e10f5000ae
:101810000200360010002000000f780030c6800063
:101820000000e0000600320010002000000f7800e9
:101830000300370020c680000000e80020c68800b2
:101840001e0078000080fa00000006000400fa0084
:1018500080c680000000e00003003200100020007d
:1018600030c68800350037000000eb0030c6880025
:1018700001c68000010f78000c0037001e007800c0
:101880000000e00008003a0011028000f0f12f0093
:10189000008060000050a0001002880000000000de
:1018a00000000000ffff37001e0fe9001e00780057
:1018b0006e00b900800078000081210000804000a7
:1018c000100078000000e000ecff32001e007800fd
:1018d0006e00b90080007800008121000080400087
:1018e000100798001e0090001000900090009000db
:1018f0001e009000110098001e00900090009000c3
:101900001e00900064004000808f500004003a00e8
:101910001e009000b00090001e0090001100980082
:101920001e009000100090003000900070c08800f1
:101930009e00780001c6880070c080000080fa0018
:10194000000006000400fa00000f7800110798005c
:101950001e0078000000e00008003a00110280003c
:10196000f0f12f00008060000050a00010028800fd
:101970000000000000000000ffff370070c0800082
:101980006c004000800078001e007800a81802005b
:1019900000000000110020001e009000410207001e
:1019a0000080fa00000006000800fa001007980006
:1019b00021079800320798001e0090000000e00008
:1019c00008003a0011028000f0f12f000080600052
:1019d0000050a0001002880000000000000000007d
:1019e000ffff370080c680000000e00008003a00da
:1019f00011028000f0f12f00008060000050a00074
:101a0000100288000000000000000000ffff370007
:101a100070c08000ae00900001f0a000610098004e
:101a20001e00900090009000010f780070c08000b0
:101a30009e0078007100980070c080009e007800c1
:101a4000a1009000010898001e007800200090007e
:101a500071c08000ec8040001100980070c08000d0
:101a6000ec0040001e0078002100980070c080004b
:101a70009e009000210898001e0090001000780041
:101a80008000e8001e00900001087800110020008e
:101a90003e009000030207000080fa0000000600ec
:101aa0000e00fa00600798006e0090003000900071
:101ab00030009000100798001e0090000000e00029
:101ac00008003a0011028000f0f12f000080600051
:101ad0000050a0001002880000000000000000007c
:101ae000ffff37001e009000a0089000210798001b
:101af0001e009000700090009e00900081089000f1
:101b0000210098001e009000000890009e009000a8
:101b1000f1009000110098002e00900090009000bd
:101b20001e0090006c004000808f500004003a00be
:101b30001e009000800890002e0090001100980078
:101b40001e0090008000eb00210898002e009000fd
:101b5000100078008000e9002e0090000108780055
:101b600080c680000000e00057003a001e00900090
:101b7000d0009000310798001e00900020009000d7
:101b80009e009000b1009000210098001e0090007f
:101b9000300090009e009000a1009000110098007d
:101ba0003e009000900090001e0090000080e80031
:101bb000808f500004003a001e009000b00090009a
:101bc0003e009000110098001e0090008000eb0085
:101bd000510098003e009000100078008000e9005d
:101be0003e009000010878001e009000b0089000b0
:101bf00000c68000808f5000030036001e00900059
:101c00003008900000c688001e0090003008900048
:101c10006e00b90080007800008121000080400043
:101c200090009000410798001e009000ce009000a8
:101c3000210098004e009000a00090001e0090002f
:101c4000310098004e009000200090009e0090000f
:101c50008180e800110098001e0090008080e8005c
:101c60004e009000210098001e0090003008900067
:101c70006e00b90080007800008121008080400063
:101c80001e009000510098001e0090003008900047
:101c90006e00b900800078000081210000814000c2
:101ca0001e009000300890006e00b900800078009f
:101cb0000081210000804000100078000000e80052
:101cc000000978001800370081c58000510798008e
:101cd0001e009000de009000710098005e009000f1
:101ce000a00090001e009000010898005e00900087
:101cf000200090009e009000ec80400011009800b1
:101d00001e009000ec0040005e0090002100980052
:101d10001e009000e18a21002108980070c5800013
:101d20000000e80070c588001e009000b008900018
:101d300070c0800030089000808f50000500360091
:101d400010002000000f78001000200030c688002e
:101d5000020037000000eb00000f78001e00780042
:101d60000080fa00000006000c00fa00400798000e
:101d70005107980080c680000000e00008003a008b
:101d800011028000f0f12f00008060000050a000e0
:101d9000100288000000000000000000ffff370074
:101da0005e0090008000780001f0a0004e009000de
:101db000010878004e00900030009000000f78007d
:101dc0001e0078000000e00008003a0011028000c8
:101dd000f0f12f00008060000050a0001002880089
:101de0000000000000000000ffff37004e009000e0
:101df000c0009000110798004e0090001000900065
:101e0000ce009000a1009000210098004e009000ac
:101e100020009000ce0090009100900011009800ea
:101e20001e009000900090004e009000808f5000a7
:101e300004003a004e009000a00090001e009000a8
:101e4000110098004e0090008000eb0041009800c7
:101e50001e009000100078008000e9001e00900035
:101e6000010878001e007800d0009000210798003b
:101e70001e007800200090009e007800b1009000c5
:101e8000210098001e007800300090009e0078002d
:101e9000a1009000110098002e009000900090008a
:101ea0001e80e800808f500004003a001e00780079
:101eb000b00090002e009000110098001e007800e5
:101ec0008000eb00510098002e0090001000780078
:101ed0008000e9002e009000010878001e007800c4
:101ee000b008900000c68000808f500003003600cc
:101ef0001e0078003008900000c688001e007800a0
:101f0000300890006e00b900800078000081210048
:101f10000080400090009000310798001e0078007b
:101f2000be009000210098003e009000a0009000ac
:101f30001e007800310098003e00900020009000c4
:101f40009e80e800110098009e80e8003e0090000e
:101f5000210098001e007800300890006e00b90043
:101f60008000780000812100808040001e00780001
:101f7000510098001e007800300890006e00b900f3
:101f80008000780000812100008140001e00780060
:101f9000300890006e00b9008000780000812100b8
:101fa00000804000100078000000e8000009780080
:101fb0001e007800b008900070c0800030089000cb
:101fc000808f5000020036001000200030c68800cc
:101fd0000080fa00000006000200fa00000f7800fe
:101fe0001e0078000000e00008003a0011028000a6
:101ff000f0f12f00008060000050a0001002880067
:102000000000000000000000ffff3700da170200a8
:102010000000000041c680001e0078000108780022
:10202000f1c580001e00780011009800f41702002e
:10203000000000000080fa00000006000200fa0024
:10204000000f780041c680001e007800010878006b
:10205000f1c580001e007800110098000080fa0091
:10206000000006000a00fa003007980041079800b7
:102070003e0090000000e00008003a0011028000dd
:10208000f0f12f00008060000050a00010028800d6
:102090000000000000000000ffff37004e0090002d
:1020a0000000e00008003a0011028000f0f12f006b
:1020b000008060000050a0001002880000000000b6
:1020c00000000000ffff3700da17020000000000e8
:1020d000f1c58000110798003e00900010009000ac
:1020e0009e00900000805000200798003e00900065
:1020f0009000780040c68000808f50000b003200b6
:102100003e009000900090001e009000808f5000d4
:1021100006003e0010002000000f78004e009000e6
:102120008000eb0001087800150037004e00900099
:10213000900078002e009000808f50000b00360039
:102140004e009000900078002e009000808050009b
:102150004e009000010878003e009000b7ff070095
:102160000000eb00000f7800050037004e009000e3
:102170008000eb000108780010002000000f7800bc
:10218000f4170200000000001e0078000080fa0032
:10219000000006000000fa001000200030c6880091
:1021a0000080fa00000006000200fa00000f78002c
:1021b0001f000700feff37000200fa000000eb00de
:1021c000000f7800080037001e0078006e00b9008c
:1021d0008000780000812100008040002618020065
:1021e000000000001e0fe8001e007800e80f5000fd
:1021f000f5ff3600e08821002618020000000000ec
:10220000c08921002618020000000000e08a210099
:102210002618020000000000e088210050c5880058
:10222000c089210060c588000080fa000000060017
:102230000000fa000080fa00000006000000fa002a
:1022400050c58000100078000000e00003003a0054
:102250000080eb0060c688000400370050c5800095
:10226000300090001000780060c688000080fa00fe
:10227000000006000200fa0070c08000e00090003c
:10228000010f780070c0800071c08000b10890001c
:10229000e9801000610098001e0078000080fa00bc
:1022a000000006000c00fa00400798005107980053
:1022b000f1c58000010f780051c58000110798001a
:1022c00061c580002107980070c080000080e80090
:1022d0000a190200000000004e0090001e0040009d
:1022e0003007980070c08000be0090001100980078
:1022f0003e0090009e0f50000700310070c080002b
:102300000080e800800078002e009000a8180200ed
:10231000000000000c00370070c080000080e80062
:10232000800078001e009000a81802000000000045
:1023300060c68000be009000808f50000200310017
:10234000be00900061c688000080fa000000060010
:102350000200fa000000eb0070c088000000eb00f3
:10236000e0c588000000eb00f0c588000000eb002d
:1023700000c688000000eb0010c688000000eb00db
:1023800020c688000000eb00000f7800070037002f
:102390001e00780080004000608c2100008040001a
:1023a0008000eb00010878001e0fe8001e00780096
:1023b0000000e000f6ff34000000eb0040c688009b
:1023c0000000eb0050c688000000eb0060c68800eb
:1023d0000000eb0080c688000080fa0000000600c4
:1023e0000c00fa00500798000000eb00200798004e
:1023f0005e0090000000e0002100320070208400a8
:102400008080ea005e009000808f50001a00390042
:1024100070208400de00900000804000500798008b
:102420005e00900061006000004078000004e00061
:10243000130032005e009000610060006200100036
:10244000300798003e0090008080ea005e00900017
:10245000808f500005003900de0090003e009000a3
:102460000080400050079800050037000000eb0096
:1024700050079800020037000000eb00500798005a
:10248000440802000000000020c080000000e000be
:1024900001003a00530107005e0090000000e000d8
:1024a000b10035005e0090000000e000ae00320098
:1024b00030c08000de009000808f5000aa003e00f7
:1024c000008021001007980001c08000010f7800f3
:1024d0009e00780000802000808f500006003900a8
:1024e0009e007800f07f2100808f500002003e00a7
:1024f00010002000010037000000eb000000e000a9
:1025000021003a0011028000f0f12f0000806000ed
:102510000050a00010028800000000000000000031
:10252000ffff37009e007800110798001e0078001a
:10253000100f78009e00780000802000808f5000ef
:10254000060039009e007800f07f2100808f500047
:1025500002003e0010002000010037000000eb00e8
:102560000000e00009003a0011028000f0f12f00a5
:10257000008060000050a0001002880000000000f1
:1025800000000000ffff3700000000001e00780080
:10259000900090005e009000808f50000400310099
:1025a0001e007800100078000000e000ddff3a0017
:1025b00020c080009e007800808f50006a003200aa
:1025c0001e00900090007800702084000080400081
:1025d00020079800ae00900000802000808f5000ff
:1025e00006003900ae009000f07f2100808f50007f
:1025f00002003e0010002000010037000000eb0048
:102600000000e00008003a0011028000f0f12f0005
:10261000008060000050a000100288000000000050
:1026200000000000ffff37001e00780090007800d7
:102630001e009000010878001e00780090009000b5
:102640005e009000808f5000080031001102800071
:10265000f0f12f00008060000050a0001002880000
:102660000000000000000000ffff37001e0078009f
:10267000900090005e0090008080500070208400e8
:1026800000004000808f5000200036005e00900067
:102690001e004000400798004e009000610060005e
:1026a000004078000004e0000800320011028000c1
:1026b000f0f12f00008060000050a00010028800a0
:1026c0000000000000000000ffff37001e0078003f
:1026d000900090005e009000808050004e009000be
:1026e000110098001e007800de0090001100980094
:1026f0001e009000900078004e00900001087800c5
:102700001e009000ce0090000108780031c08000cb
:102710001e007800100090000080500030c088003b
:1027200031c0800040c08000808f50000200310026
:1027300030c0800040c088001e007800100090006b
:102740008000780001f0a0001e00780011009800c1
:102750001e0078008000eb000108780050c0800067
:102760000000e80050c0880050080200000000008f
:102770002e00900061006000004078000004e0003e
:102780000800320011028000f0f12f00008060008c
:102790000050a000100288000000000000000000af
:1027a000ffff37002e0090000080fa0000000600b6
:1027b0000600fa0020079800ae009000010f780094
:1027c0002e0090000000e0004e00320070208400d7
:1027d0000000ea001e0f40009e00780011079800dc
:1027e0009e00900000802000808f5000060039007d
:1027f0009e009000f07f2100808f500002003e007c
:1028000010002000010037000000eb000000e00095
:1028100008003a0011028000f0f12f0000806000f3
:102820000050a0001002880000000000000000001e
:10283000ffff37001e009000100090000000e00035
:102840000800350011028000f0f12f0000806000c8
:102850000050a000100288000000000000000000ee
:10286000ffff37001e009000100078000000e0001d
:102870000800320011028000f0f12f00008060009b
:102880000050a000100288000000000000000000be
:10289000ffff37001e009000100090000000e000d5
:1028a00018003d001e009000100078000000e000bd
:1028b00014003a001e009000100090008000780084
:1028c00001f0a1001e0090001100980044080200d1
:1028d000000000001e0090009000900030c08000ba
:1028e0000080400030c088001e0090007600070085
:1028f00060c080000000e80060c08800500802004e
:10290000000000000080fa00000006000000fa004d
:1029100030c080000080fa00000006000000fa00cd
:1029200040c080000080fa00000006000000fa00ad
:102930000080fa00000006000600fa001007980068
:10294000210798000000eb00000f78001e009000a7
:102950000000e0000b0032008080eb001e009000c1
:1029600000017800110009008280d8008000780002
:102970002e009000808f50000200310010002000d7
:10298000010037000000eb000000e00012003a00f8
:102990009e0090002e0090000088b9000000780092
:1029a0008ffe0700000f78001e0078000000e00096
:1029b000090032009e0090002e0090000088b900af
:1029c00000007800000178008000eb001e00780015
:1029d00008030200000000001e0078000080fa00da
:1029e000000006000800fa0000002100100798000f
:1029f00000802000000f78001e0078006100600059
:102a0000004078000004e000070032001e0fe800dc
:102a10001e00a1001e0090009e00500000802000bb
:102a200000804000100798001e00780000c0880059
:102a30000000eb0010c088001e0090001e00400047
:102a40002007980070208400ae00900000805000a5
:102a5000200798002e0090000000a1002007980099
:102a60002e00900020c0880020c080008000eb0075
:102a70001100980020c080008000eb000108780061
:102a80009e007800310798003e009000ae00900054
:102a9000808050003e0090001100980021c080000e
:102aa0003e009000010878003e0090001000900069
:102ab00040c088003e0090001000900030c08800a8
:102ac0000080fa00000006000600fa0020079800c7
:102ad00000802100000f7800020037001e007800ff
:102ae000100f78001e007800900078002e009000f3
:102af000808f5000f9ff3900008021009e0078008f
:102b0000808f5000150032009e0078000080200069
:102b1000808f5000060039009e007800f07f210071
:102b2000808f500002003e0010002000010037009e
:102b30000000eb000000e00008003a0011028000f5
:102b4000f0f12f00008060000050a000100288000b
:102b50000000000000000000ffff37009e0078002a
:102b6000110798001e007800100090009e00900051
:102b7000808040002e009000808f500009003a00b5
:102b80001e007800900090002e0090001000900031
:102b9000808040001e007800110098009e007800a0
:102ba00021079800ae009000110798002e009000b9
:102bb000100090009e009000808040001e00780071
:102bc00010007800808f500017003a001e00780037
:102bd0009000780020c08000808f50000e003200ee
:102be0002e009000900090001e00780010007800e9
:102bf00010009000808040002e009000110098008e
:102c00001e00780010007800900078002e009000e0
:102c1000010878000800370021c080002e009000d5
:102c200001087800040037001e007800900078004a
:102c30002e009000010878002e0090009e00780081
:102c4000808f5000030032001e007800ae0090001c
:102c5000010878000080fa00000006000a00fa006f
:102c6000400798000000eb00100798000000eb0000
:102c7000200798000080eb0030079800440802000d
:102c80000000000001c08000010f78001e007800e5
:102c90000000e0001a003200150037001e0090000e
:102ca0000000e800100798001e00780090009000d7
:102cb0002e009000808f5000030036001e00780028
:102cc00090009000210798001e007800900090006e
:102cd0003e009000808f5000030031001e007800fd
:102ce00090009000310798001e007800100f7800c7
:102cf00020c080009e007800808f5000e7ff3a00df
:102d000050080200000000004e009000ae0090004d
:102d1000110098004e009000be0090002100980025
:102d20004e0090009e00900031009800da170200db
:102d30000000000031c080004e00900001087800c3
:102d400051c080004e0090005100980061c080008a
:102d50004e0090006100980041c080004e0090003d
:102d600041009800f4170200000000000080fa0003
:102d7000000006000000fa000000eb0020c0880000
:102d80000000eb0030c088000000eb0040c088006d
:102d90000000eb0050c088000000eb0060c088001d
:102da0000080fa00000006002a00fa0020179800b0
:102db0003117980042179800e4004700c23d2800f0
:102dc0000f000900b2187800be109000110798009b
:102dd0002e1090001e019000020878002e10900026
:102de0000080e800201798002e1090008000eb0073
:102df000010878002e1090000080e800201798004d
:102e00002e1090008000eb00010878002e1090003a
:102e10000080e80020179800ce1090002e1090003f
:102e2000010878002e1090000080e800201798001c
:102e30000000eb00000f78000a0037001e00780049
:102e40000000400000004700a00090002e109000fd
:102e5000010878002e1090000080e80020179800ec
:102e60001e0fe8001e007800ef0f5000f3ff360041
:102e7000210280002e109000010878002e10900092
:102e80000080e8002017980034c0bf008080fb005d
:102e90002e109000010878002e1090000080e800ad
:102ea000201798002e1090008000eb000108780099
:102eb0002e1090000080e800201798002e1090003f
:102ec0000080fa00000006000000fa00b2170200bd
:102ed0000000000070c08000900778004f0078006c
:102ee00000c788003400f9004400f9003200f900fe
:102ef0003600f9004f0778004f06be004f05be00b0
:102f00004f04be004f03be004f02be004f01be0083
:102f10004f00be004200f900000006001000200033
:102f20000080fa00000006000000fa0001c78000df
:102f3000803e2000808f5000080032001102800087
:102f4000f0f12f00008060000050a0001002880007
:102f50000000000000000000ffff37000080fa00c2
:102f6000000006000400fa00f076210001002000b5
:102f7000008fbe000421ef000021ef001e0078004a
:102f80001008880021058000f0ff28000080600004
:102f900000c0a000200588008460a9009460a800fb
:102fa0000481a80004a1a90005e1a8000080fa009e
:102fb000000006000000fa0011028000f0f12f006e
:102fc000008060000050a000100288000000000097
:102fd0000000000000c780000000e80000c7880073
:102fe0000080fa00000006000000fa0000c7800020
:102ff0000000e00008003a0011028000f0f12f000c
:10300000008060000050a000100288000000000056
:1030100000000000ffff370000c780000000e9004b
:1030200000c7880000c780000000e00005003a00eb
:1030300011028000f0f12f00008060001002880073
:10304000000000000080fa00000006000200fa0004
:10305000000f78001e017800e40041001e00780097
:10306000110098001e0078008080eb00210098007d
:103070001e017800e40041001e0078003100980035
:103080001e017800e40041001e0078004100980015
:103090001e0078008000eb00510098001e007800b0
:1030a0008000eb00610098001e0078008000eb00bb
:1030b000010878000080fa00000006000200fa0013
:1030c000000f78001e0078008000eb00410098009f
:1030d0000080fa00000006000600fa0010079800c1
:1030e000210798001e00900090009000010f7800ca
:1030f0002e0090009e007800110098001e007800bd
:10310000a00090002e009000210098001e00780082
:1031100020009000ae009000110098001e00780082
:10312000ae009000210098002e0090009e009000bc
:10313000410098001e009000100078008000e80018
:103140001e009000010878000080fa0000000600d0
:103150000800fa0020079800310798003e00900010
:1031600090007800110798001e009000e10f4000c9
:1031700004003a002e009000c0009000010f78007b
:103180000c0037002e009000640f40000300370051
:103190001e00780090009000010f78001e0078005b
:1031a00010009000900078001e009000808f50006a
:1031b000f7ff36001e007800900090003e0090005f
:1031c000110098003e00900010009000be0090009a
:1031d000210098003e0090009e0078002100980099
:1031e0001e007800be009000110098003e00900084
:1031f000ae009000410098002e0090001000780072
:103200008000e8002e009000010878000080fa009d
:10321000000006000400fa00100798001e0090004d
:10322000c0009000010f78001e0090001000900078
:103230009e009000a1009000210098001e009000c8
:10324000200090009e0090009100900011009800d6
:103250001e007800900090001e009000808f5000ab
:1032600004003a001e009000a00090001e007800ac
:10327000110098001e0090008000eb0041009800b3
:103280001e007800100078008000e9001e00780021
:10329000010878001e007800100078000080fa0015
:1032a000000006004200f800801f780000022000a5
:1032b00010028800811f7800829fbe00849fbe009c
:1032c000869fbe00889fbe008a9fbe008c9fbe0066
:1032d0008e1f78003600f8003200f8004400f80035
:1032e0003400f80000c78000801f780070c08000a4
:1032f0000f087800260c02000000000070c080005b
:10330000900778004f00780000c788003400f9006b
:103310004400f9003200f9003600f9004f07780048
:103320004f06be004f05be004f04be004f03be0057
:103330004f02be004f01be004f00be004200f90028
:10334000000006000000fa000080fa0000000600fd
:103350000000fa000080fa00000006000000fa00f9
:103360000080fa00000006000000fa000080fa0069
:10337000000006000000fa00c58d21003400200086
:10338000238d210002082000c13f2800c0a0210099
:1033900074040200000000000080fa000000060033
:1033a0000000fa00a219020000000000a8190200a3
:1033b00000000000ae19020000000000b419020075
:1033c00000000000ba19020000000000e00702003f
:1033d000000000000000eb000080fa000000060082
:020000040000fa
:1033e000d21800000e000000000000000e180000bf
:1033f000c400000000000000e0180000020000000f
:1034000002000000ef000000000800000e100000a5
:083410000000000000000000b4
:020000040000fa
:103418000400fa0010079800ec0902000000000000
:10342800000f7800110020000e00780062060200ec
:0834380000000000fbff37005b
:00000001FF
